{
  "contractName": "TenderAllocator",
  "abi": [
    {
      "constant": true,
      "inputs": [],
      "name": "Usercount",
      "outputs": [
        {
          "internalType": "uint256",
          "name": "",
          "type": "uint256"
        }
      ],
      "payable": false,
      "stateMutability": "view",
      "type": "function"
    },
    {
      "constant": true,
      "inputs": [
        {
          "internalType": "uint256",
          "name": "",
          "type": "uint256"
        }
      ],
      "name": "tenderAmounts",
      "outputs": [
        {
          "internalType": "string",
          "name": "",
          "type": "string"
        }
      ],
      "payable": false,
      "stateMutability": "view",
      "type": "function"
    },
    {
      "constant": true,
      "inputs": [],
      "name": "tenderCount",
      "outputs": [
        {
          "internalType": "uint256",
          "name": "",
          "type": "uint256"
        }
      ],
      "payable": false,
      "stateMutability": "view",
      "type": "function"
    },
    {
      "constant": true,
      "inputs": [
        {
          "internalType": "uint256",
          "name": "",
          "type": "uint256"
        }
      ],
      "name": "tenderIssuers",
      "outputs": [
        {
          "internalType": "address",
          "name": "",
          "type": "address"
        }
      ],
      "payable": false,
      "stateMutability": "view",
      "type": "function"
    },
    {
      "constant": true,
      "inputs": [
        {
          "internalType": "uint256",
          "name": "",
          "type": "uint256"
        }
      ],
      "name": "tenderNames",
      "outputs": [
        {
          "internalType": "string",
          "name": "",
          "type": "string"
        }
      ],
      "payable": false,
      "stateMutability": "view",
      "type": "function"
    },
    {
      "constant": true,
      "inputs": [
        {
          "internalType": "address",
          "name": "",
          "type": "address"
        }
      ],
      "name": "users",
      "outputs": [
        {
          "internalType": "string",
          "name": "name",
          "type": "string"
        },
        {
          "internalType": "string",
          "name": "email",
          "type": "string"
        },
        {
          "internalType": "uint256",
          "name": "phoneNumber",
          "type": "uint256"
        }
      ],
      "payable": false,
      "stateMutability": "view",
      "type": "function"
    },
    {
      "constant": false,
      "inputs": [
        {
          "internalType": "string",
          "name": "_name",
          "type": "string"
        },
        {
          "internalType": "string",
          "name": "_email",
          "type": "string"
        },
        {
          "internalType": "uint256",
          "name": "_phoneNumber",
          "type": "uint256"
        }
      ],
      "name": "registerUser",
      "outputs": [],
      "payable": false,
      "stateMutability": "nonpayable",
      "type": "function"
    },
    {
      "constant": false,
      "inputs": [
        {
          "internalType": "uint256",
          "name": "_tenderId",
          "type": "uint256"
        },
        {
          "internalType": "string",
          "name": "_tenderName",
          "type": "string"
        },
        {
          "internalType": "string",
          "name": "_tenderAmount",
          "type": "string"
        }
      ],
      "name": "addTender",
      "outputs": [],
      "payable": false,
      "stateMutability": "nonpayable",
      "type": "function"
    },
    {
      "constant": true,
      "inputs": [
        {
          "internalType": "address",
          "name": "_userAddress",
          "type": "address"
        }
      ],
      "name": "getUserTenderCount",
      "outputs": [
        {
          "internalType": "uint256",
          "name": "",
          "type": "uint256"
        }
      ],
      "payable": false,
      "stateMutability": "view",
      "type": "function"
    },
    {
      "constant": true,
      "inputs": [
        {
          "internalType": "address",
          "name": "_userAddress",
          "type": "address"
        },
        {
          "internalType": "uint256",
          "name": "_tenderId",
          "type": "uint256"
        }
      ],
      "name": "getTenderDetails",
      "outputs": [
        {
          "internalType": "string",
          "name": "",
          "type": "string"
        },
        {
          "internalType": "string",
          "name": "",
          "type": "string"
        },
        {
          "internalType": "address",
          "name": "",
          "type": "address"
        }
      ],
      "payable": false,
      "stateMutability": "view",
      "type": "function"
    },
    {
      "constant": false,
      "inputs": [],
      "name": "getAllTendersForUser",
      "outputs": [],
      "payable": false,
      "stateMutability": "nonpayable",
      "type": "function"
    },
    {
      "constant": true,
      "inputs": [],
      "name": "getTenderNames",
      "outputs": [
        {
          "internalType": "string[]",
          "name": "",
          "type": "string[]"
        }
      ],
      "payable": false,
      "stateMutability": "view",
      "type": "function"
    },
    {
      "constant": true,
      "inputs": [],
      "name": "getTenderAmounts",
      "outputs": [
        {
          "internalType": "string[]",
          "name": "",
          "type": "string[]"
        }
      ],
      "payable": false,
      "stateMutability": "view",
      "type": "function"
    },
    {
      "constant": true,
      "inputs": [],
      "name": "getTenderIssuers",
      "outputs": [
        {
          "internalType": "address[]",
          "name": "",
          "type": "address[]"
        }
      ],
      "payable": false,
      "stateMutability": "view",
      "type": "function"
    },
    {
      "constant": true,
      "inputs": [],
      "name": "getAllUsersTenderDetails",
      "outputs": [
        {
          "internalType": "string[][]",
          "name": "",
          "type": "string[][]"
        },
        {
          "internalType": "string[][]",
          "name": "",
          "type": "string[][]"
        },
        {
          "internalType": "address[][]",
          "name": "",
          "type": "address[][]"
        }
      ],
      "payable": false,
      "stateMutability": "view",
      "type": "function"
    }
  ],
  "bytecode": "0x608060405234801561001057600080fd5b5061249c806100206000396000f3fe608060405234801561001057600080fd5b50600436106100f55760003560e01c806385791b0011610097578063cf2be03911610066578063cf2be0391461028e578063e3549c8e146102be578063f209e74f146102dc578063fbfc0eb9146102f8576100f5565b806385791b00146101da578063a87430ba1461020a578063ada51d511461023c578063af6ce3301461025c576100f5565b806348477ef9116100d357806348477ef91461016657806355d6478b1461017057806356ccde211461018e578063703df2ee146101be576100f5565b80631f058776146100fa5780632247bd051461011857806333bc628d14610136575b600080fd5b610102610316565b60405161010f919061215f565b60405180910390f35b61012061031c565b60405161012d9190611fe3565b60405180910390f35b610150600480360361014b9190810190611a8a565b6103aa565b60405161015d9190611fc8565b60405180910390f35b61016e6103e6565b005b61017861080f565b6040516101859190612051565b60405180910390f35b6101a860048036036101a39190810190611a8a565b6108f8565b6040516101b59190612073565b60405180910390f35b6101d860048036036101d39190810190611ab3565b6109b1565b005b6101f460048036036101ef9190810190611a8a565b610bba565b6040516102019190612073565b60405180910390f35b610224600480360361021f91908101906119a6565b610c73565b604051610233939291906120da565b60405180910390f35b610244610dcd565b60405161025393929190612005565b60405180910390f35b610276600480360361027191908101906119cf565b611175565b60405161028593929190612095565b60405180910390f35b6102a860048036036102a391908101906119a6565b6113e2565b6040516102b5919061215f565b60405180910390f35b6102c6611431565b6040516102d39190612051565b60405180910390f35b6102f660048036036102f19190810190611a0b565b61151a565b005b610300611625565b60405161030d919061215f565b60405180910390f35b60015481565b606060048054806020026020016040519081016040528092919081815260200182805480156103a057602002820191906000526020600020905b8160009054906101000a900473ffffffffffffffffffffffffffffffffffffffff1673ffffffffffffffffffffffffffffffffffffffff1681526020019060010190808311610356575b5050505050905090565b600481815481106103b757fe5b906000526020600020016000915054906101000a900473ffffffffffffffffffffffffffffffffffffffff1681565b60006103f1336113e2565b9050806001819055508060405190808252806020026020018201604052801561042e57816020015b60608152602001906001900390816104195790505b506002908051906020019061044492919061162b565b508060405190808252806020026020018201604052801561047957816020015b60608152602001906001900390816104645790505b506003908051906020019061048f92919061162b565b50806040519080825280602002602001820160405280156104bf5781602001602082028038833980820191505090505b50600490805190602001906104d592919061168b565b5060008090505b8181101561080b576000600560003373ffffffffffffffffffffffffffffffffffffffff1673ffffffffffffffffffffffffffffffffffffffff168152602001908152602001600020600401828154811061053357fe5b90600052602060002001549050610548611715565b600560003373ffffffffffffffffffffffffffffffffffffffff1673ffffffffffffffffffffffffffffffffffffffff1681526020019081526020016000206003016000838152602001908152602001600020604051806060016040529081600082018054600181600116156101000203166002900480601f01602080910402602001604051908101604052809291908181526020018280546001816001161561010002031660029004801561063f5780601f106106145761010080835404028352916020019161063f565b820191906000526020600020905b81548152906001019060200180831161062257829003601f168201915b50505050508152602001600182018054600181600116156101000203166002900480601f0160208091040260200160405190810160405280929190818152602001828054600181600116156101000203166002900480156106e15780601f106106b6576101008083540402835291602001916106e1565b820191906000526020600020905b8154815290600101906020018083116106c457829003601f168201915b505050505081526020016002820160009054906101000a900473ffffffffffffffffffffffffffffffffffffffff1673ffffffffffffffffffffffffffffffffffffffff1673ffffffffffffffffffffffffffffffffffffffff1681525050905080600001516002848154811061075457fe5b90600052602060002001908051906020019061077192919061174c565b5080602001516003848154811061078457fe5b9060005260206000200190805190602001906107a192919061174c565b508060400151600484815481106107b457fe5b9060005260206000200160006101000a81548173ffffffffffffffffffffffffffffffffffffffff021916908373ffffffffffffffffffffffffffffffffffffffff160217905550505080806001019150506104dc565b5050565b60606003805480602002602001604051908101604052809291908181526020016000905b828210156108ef578382906000526020600020018054600181600116156101000203166002900480601f0160208091040260200160405190810160405280929190818152602001828054600181600116156101000203166002900480156108db5780601f106108b0576101008083540402835291602001916108db565b820191906000526020600020905b8154815290600101906020018083116108be57829003601f168201915b505050505081526020019060010190610833565b50505050905090565b6002818154811061090557fe5b906000526020600020016000915090508054600181600116156101000203166002900480601f0160208091040260200160405190810160405280929190818152602001828054600181600116156101000203166002900480156109a95780601f1061097e576101008083540402835291602001916109a9565b820191906000526020600020905b81548152906001019060200180831161098c57829003601f168201915b505050505081565b60008251116109f5576040517f08c379a00000000000000000000000000000000000000000000000000000000081526004016109ec9061211f565b60405180910390fd5b6000815111610a39576040517f08c379a0000000000000000000000000000000000000000000000000000000008152600401610a309061213f565b60405180910390fd5b60405180606001604052808381526020018281526020013373ffffffffffffffffffffffffffffffffffffffff16815250600560003373ffffffffffffffffffffffffffffffffffffffff1673ffffffffffffffffffffffffffffffffffffffff16815260200190815260200160002060030160008581526020019081526020016000206000820151816000019080519060200190610ad99291906117cc565b506020820151816001019080519060200190610af69291906117cc565b5060408201518160020160006101000a81548173ffffffffffffffffffffffffffffffffffffffff021916908373ffffffffffffffffffffffffffffffffffffffff160217905550905050600560003373ffffffffffffffffffffffffffffffffffffffff1673ffffffffffffffffffffffffffffffffffffffff168152602001908152602001600020600401839080600181540180825580915050906001820390600052602060002001600090919290919091505550610bb56103e6565b505050565b60038181548110610bc757fe5b906000526020600020016000915090508054600181600116156101000203166002900480601f016020809104026020016040519081016040528092919081815260200182805460018160011615610100020316600290048015610c6b5780601f10610c4057610100808354040283529160200191610c6b565b820191906000526020600020905b815481529060010190602001808311610c4e57829003601f168201915b505050505081565b6005602052806000526040600020600091509050806000018054600181600116156101000203166002900480601f016020809104026020016040519081016040528092919081815260200182805460018160011615610100020316600290048015610d1f5780601f10610cf457610100808354040283529160200191610d1f565b820191906000526020600020905b815481529060010190602001808311610d0257829003601f168201915b505050505090806001018054600181600116156101000203166002900480601f016020809104026020016040519081016040528092919081815260200182805460018160011615610100020316600290048015610dbd5780601f10610d9257610100808354040283529160200191610dbd565b820191906000526020600020905b815481529060010190602001808311610da057829003601f168201915b5050505050908060020154905083565b6060806060600080905060008090505b600054811015610e2c57610e1b3082604051602001610dfd929190611f9c565b6040516020818303038152906040528051906020012060001c6113e2565b820191508080600101915050610ddd565b50606081604051908082528060200260200182016040528015610e6357816020015b6060815260200190600190039081610e4e5790505b509050606082604051908082528060200260200182016040528015610e9c57816020015b6060815260200190600190039081610e875790505b509050606083604051908082528060200260200182016040528015610ed557816020015b6060815260200190600190039081610ec05790505b509050600080905060008090505b6000548110156111615760003082604051602001610f02929190611f9c565b6040516020818303038152906040528051906020012060001c90506000610f28826113e2565b905060008090505b81811015611151576060806000610f9e86600560008973ffffffffffffffffffffffffffffffffffffffff1673ffffffffffffffffffffffffffffffffffffffff1681526020019081526020016000206004018681548110610f8e57fe5b9060005260206000200154611175565b9250925092506001604051908082528060200260200182016040528015610fd957816020015b6060815260200190600190039081610fc45790505b508b8981518110610fe657fe5b6020026020010181905250828b8981518110610ffe57fe5b602002602001015160008151811061101257fe5b6020026020010181905250600160405190808252806020026020018201604052801561105257816020015b606081526020019060019003908161103d5790505b508a898151811061105f57fe5b6020026020010181905250818a898151811061107757fe5b602002602001015160008151811061108b57fe5b602002602001018190525060016040519080825280602002602001820160405280156110c65781602001602082028038833980820191505090505b508989815181106110d357fe5b6020026020010181905250808989815181106110eb57fe5b60200260200101516000815181106110ff57fe5b602002602001019073ffffffffffffffffffffffffffffffffffffffff16908173ffffffffffffffffffffffffffffffffffffffff168152505087806001019850505050508080600101915050610f30565b5050508080600101915050610ee3565b508383839750975097505050505050909192565b6060806000600560008673ffffffffffffffffffffffffffffffffffffffff1673ffffffffffffffffffffffffffffffffffffffff1681526020019081526020016000206003016000858152602001908152602001600020600001600560008773ffffffffffffffffffffffffffffffffffffffff1673ffffffffffffffffffffffffffffffffffffffff1681526020019081526020016000206003016000868152602001908152602001600020600101600560008873ffffffffffffffffffffffffffffffffffffffff1673ffffffffffffffffffffffffffffffffffffffff168152602001908152602001600020600301600087815260200190815260200160002060020160009054906101000a900473ffffffffffffffffffffffffffffffffffffffff16828054600181600116156101000203166002900480601f0160208091040260200160405190810160405280929190818152602001828054600181600116156101000203166002900480156113325780601f1061130757610100808354040283529160200191611332565b820191906000526020600020905b81548152906001019060200180831161131557829003601f168201915b50505050509250818054600181600116156101000203166002900480601f0160208091040260200160405190810160405280929190818152602001828054600181600116156101000203166002900480156113ce5780601f106113a3576101008083540402835291602001916113ce565b820191906000526020600020905b8154815290600101906020018083116113b157829003601f168201915b505050505091509250925092509250925092565b6000600560008373ffffffffffffffffffffffffffffffffffffffff1673ffffffffffffffffffffffffffffffffffffffff168152602001908152602001600020600401805490509050919050565b60606002805480602002602001604051908101604052809291908181526020016000905b82821015611511578382906000526020600020018054600181600116156101000203166002900480601f0160208091040260200160405190810160405280929190818152602001828054600181600116156101000203166002900480156114fd5780601f106114d2576101008083540402835291602001916114fd565b820191906000526020600020905b8154815290600101906020018083116114e057829003601f168201915b505050505081526020019060010190611455565b50505050905090565b600080815480929190600101919050555082600560003373ffffffffffffffffffffffffffffffffffffffff1673ffffffffffffffffffffffffffffffffffffffff168152602001908152602001600020600001908051906020019061158192919061174c565b5081600560003373ffffffffffffffffffffffffffffffffffffffff1673ffffffffffffffffffffffffffffffffffffffff16815260200190815260200160002060010190805190602001906115d892919061174c565b5080600560003373ffffffffffffffffffffffffffffffffffffffff1673ffffffffffffffffffffffffffffffffffffffff16815260200190815260200160002060020181905550505050565b60005481565b82805482825590600052602060002090810192821561167a579160200282015b828111156116795782518290805190602001906116699291906117cc565b509160200191906001019061164b565b5b509050611687919061184c565b5090565b828054828255906000526020600020908101928215611704579160200282015b828111156117035782518260006101000a81548173ffffffffffffffffffffffffffffffffffffffff021916908373ffffffffffffffffffffffffffffffffffffffff160217905550916020019190600101906116ab565b5b5090506117119190611878565b5090565b60405180606001604052806060815260200160608152602001600073ffffffffffffffffffffffffffffffffffffffff1681525090565b828054600181600116156101000203166002900490600052602060002090601f016020900481019282601f1061178d57805160ff19168380011785556117bb565b828001600101855582156117bb579182015b828111156117ba57825182559160200191906001019061179f565b5b5090506117c891906118bb565b5090565b828054600181600116156101000203166002900490600052602060002090601f016020900481019282601f1061180d57805160ff191683800117855561183b565b8280016001018555821561183b579182015b8281111561183a57825182559160200191906001019061181f565b5b50905061184891906118bb565b5090565b61187591905b80821115611871576000818161186891906118e0565b50600101611852565b5090565b90565b6118b891905b808211156118b457600081816101000a81549073ffffffffffffffffffffffffffffffffffffffff02191690555060010161187e565b5090565b90565b6118dd91905b808211156118d95760008160009055506001016118c1565b5090565b90565b50805460018160011615610100020316600290046000825580601f106119065750611925565b601f01602090049060005260206000209081019061192491906118bb565b5b50565b6000813590506119378161242b565b92915050565b600082601f83011261194e57600080fd5b813561196161195c826121a7565b61217a565b9150808252602083016020830185838301111561197d57600080fd5b61198883828461239d565b50505092915050565b6000813590506119a081612442565b92915050565b6000602082840312156119b857600080fd5b60006119c684828501611928565b91505092915050565b600080604083850312156119e257600080fd5b60006119f085828601611928565b9250506020611a0185828601611991565b9150509250929050565b600080600060608486031215611a2057600080fd5b600084013567ffffffffffffffff811115611a3a57600080fd5b611a468682870161193d565b935050602084013567ffffffffffffffff811115611a6357600080fd5b611a6f8682870161193d565b9250506040611a8086828701611991565b9150509250925092565b600060208284031215611a9c57600080fd5b6000611aaa84828501611991565b91505092915050565b600080600060608486031215611ac857600080fd5b6000611ad686828701611991565b935050602084013567ffffffffffffffff811115611af357600080fd5b611aff8682870161193d565b925050604084013567ffffffffffffffff811115611b1c57600080fd5b611b288682870161193d565b9150509250925092565b6000611b3e8383611b86565b60208301905092915050565b6000611b568383611c19565b905092915050565b6000611b6a8383611dd6565b905092915050565b6000611b7e8383611e84565b905092915050565b611b8f81612361565b82525050565b611b9e81612361565b82525050565b611bb5611bb082612361565b6123df565b82525050565b6000611bc68261223e565b611bd081856122ea565b9350611bdb836121e3565b8060005b83811015611c0c578151611bf38882611b32565b9750611bfe83612298565b925050600181019050611bdf565b5085935050505092915050565b6000611c2482612233565b611c2e81856122d9565b9350611c39836121d3565b8060005b83811015611c6a578151611c518882611b32565b9750611c5c8361228b565b925050600181019050611c3d565b5085935050505092915050565b6000611c8282612249565b611c8c81856122fb565b935083602082028501611c9e856121f3565b8060005b85811015611cda5784840389528151611cbb8582611b4a565b9450611cc6836122a5565b925060208a01995050600181019050611ca2565b50829750879550505050505092915050565b6000611cf782612254565b611d01818561230c565b935083602082028501611d1385612203565b8060005b85811015611d4f5784840389528151611d308582611b5e565b9450611d3b836122b2565b925060208a01995050600181019050611d17565b50829750879550505050505092915050565b6000611d6c8261226a565b611d76818561232e565b935083602082028501611d8885612223565b8060005b85811015611dc45784840389528151611da58582611b72565b9450611db0836122cc565b925060208a01995050600181019050611d8c565b50829750879550505050505092915050565b6000611de18261225f565b611deb818561231d565b935083602082028501611dfd85612213565b8060005b85811015611e395784840389528151611e1a8582611b72565b9450611e25836122bf565b925060208a01995050600181019050611e01565b50829750879550505050505092915050565b6000611e5682612280565b611e608185612350565b9350611e708185602086016123ac565b611e798161240d565b840191505092915050565b6000611e8f82612275565b611e99818561233f565b9350611ea98185602086016123ac565b611eb28161240d565b840191505092915050565b6000611ec882612275565b611ed28185612350565b9350611ee28185602086016123ac565b611eeb8161240d565b840191505092915050565b6000611f03601d83612350565b91507f54656e646572206e616d65206d757374206e6f7420626520656d7074790000006000830152602082019050919050565b6000611f43601f83612350565b91507f54656e64657220616d6f756e74206d757374206e6f7420626520656d707479006000830152602082019050919050565b611f7f81612393565b82525050565b611f96611f9182612393565b612403565b82525050565b6000611fa88285611ba4565b601482019150611fb88284611f85565b6020820191508190509392505050565b6000602082019050611fdd6000830184611b95565b92915050565b60006020820190508181036000830152611ffd8184611bbb565b905092915050565b6000606082019050818103600083015261201f8186611cec565b905081810360208301526120338185611cec565b905081810360408301526120478184611c77565b9050949350505050565b6000602082019050818103600083015261206b8184611d61565b905092915050565b6000602082019050818103600083015261208d8184611ebd565b905092915050565b600060608201905081810360008301526120af8186611e4b565b905081810360208301526120c38185611e4b565b90506120d26040830184611b95565b949350505050565b600060608201905081810360008301526120f48186611ebd565b905081810360208301526121088185611ebd565b90506121176040830184611f76565b949350505050565b6000602082019050818103600083015261213881611ef6565b9050919050565b6000602082019050818103600083015261215881611f36565b9050919050565b60006020820190506121746000830184611f76565b92915050565b6000604051905081810181811067ffffffffffffffff8211171561219d57600080fd5b8060405250919050565b600067ffffffffffffffff8211156121be57600080fd5b601f19601f8301169050602081019050919050565b6000819050602082019050919050565b6000819050602082019050919050565b6000819050602082019050919050565b6000819050602082019050919050565b6000819050602082019050919050565b6000819050602082019050919050565b600081519050919050565b600081519050919050565b600081519050919050565b600081519050919050565b600081519050919050565b600081519050919050565b600081519050919050565b600081519050919050565b6000602082019050919050565b6000602082019050919050565b6000602082019050919050565b6000602082019050919050565b6000602082019050919050565b6000602082019050919050565b600082825260208201905092915050565b600082825260208201905092915050565b600082825260208201905092915050565b600082825260208201905092915050565b600082825260208201905092915050565b600082825260208201905092915050565b600082825260208201905092915050565b600082825260208201905092915050565b600061236c82612373565b9050919050565b600073ffffffffffffffffffffffffffffffffffffffff82169050919050565b6000819050919050565b82818337600083830152505050565b60005b838110156123ca5780820151818401526020810190506123af565b838111156123d9576000848401525b50505050565b60006123ea826123f1565b9050919050565b60006123fc8261241e565b9050919050565b6000819050919050565b6000601f19601f8301169050919050565b60008160601b9050919050565b61243481612361565b811461243f57600080fd5b50565b61244b81612393565b811461245657600080fd5b5056fea365627a7a7231582058e7fdb24be42231c68ab839d9da5ece3085b49cc8ca1dd34c294db673beb0856c6578706572696d656e74616cf564736f6c63430005100040",
  "source": "// SPDX-License-Identifier: MIT \r\npragma solidity >=0.4.22;\r\n\r\npragma experimental ABIEncoderV2; // Enable experimental ABI encoder\r\n\r\ncontract TenderAllocator {\r\n    \r\n    struct UserDetails {\r\n        string name;\r\n        string email;\r\n        uint256 phoneNumber;\r\n        mapping(uint256 => Tender) tenders; // Map to store tender details by tender ID\r\n        uint256[] tenderIds; // Array to store IDs of tenders associated with this user\r\n    }\r\n    \r\n    struct Tender {\r\n        \r\n        string tenderName;\r\n        string tenderAmount;\r\n        address tenderIssuer;\r\n    }\r\n\r\n    uint public Usercount;\r\n    uint256 public tenderCount;\r\n    string[] public tenderNames;\r\n    string[] public tenderAmounts;\r\n    address[] public tenderIssuers;\r\n    \r\n    \r\n    mapping(address => UserDetails) public users; // Map to store user details by user address\r\n    \r\n    //event UserRegistered(address userAddress, string name, string email, uint256 phoneNumber);\r\n    //event TenderAdded(address userAddress, uint256 tenderId, string tenderName, uint256 tenderAmount, address tenderIssuer);\r\n    \r\n    function registerUser(string memory _name, string memory _email, uint256 _phoneNumber) public {\r\n        Usercount++;\r\n        users[msg.sender].name = _name;\r\n        users[msg.sender].email = _email;\r\n        users[msg.sender].phoneNumber = _phoneNumber;\r\n        \r\n        //emit UserRegistered(msg.sender, _name, _email, _phoneNumber);\r\n    }\r\n    \r\n    function addTender(uint256 _tenderId, string memory _tenderName, string memory _tenderAmount) public {\r\n        require(bytes(_tenderName).length > 0, \"Tender name must not be empty\");\r\n        require(bytes(_tenderAmount).length > 0, \"Tender amount must not be empty\");\r\n        \r\n        users[msg.sender].tenders[_tenderId] = Tender(_tenderName, _tenderAmount, msg.sender);\r\n        users[msg.sender].tenderIds.push(_tenderId);\r\n        getAllTendersForUser();\r\n        \r\n        //emit TenderAdded(msg.sender, _tenderId, _tenderName, _tenderAmount, msg.sender);\r\n    }\r\n    \r\n    function getUserTenderCount(address _userAddress) public view returns (uint256) {\r\n        return users[_userAddress].tenderIds.length;\r\n    }\r\n    \r\n    function getTenderDetails(address _userAddress, uint256 _tenderId) public view returns (string memory, string memory, address) {\r\n        return (\r\n            users[_userAddress].tenders[_tenderId].tenderName,\r\n            users[_userAddress].tenders[_tenderId].tenderAmount,\r\n            users[_userAddress].tenders[_tenderId].tenderIssuer\r\n        );\r\n    }\r\n    \r\n    function getAllTendersForUser() public {\r\n        uint256 userTenderCount = getUserTenderCount(msg.sender);\r\n        tenderCount = userTenderCount;\r\n        tenderNames = new string[](userTenderCount);\r\n        tenderAmounts = new string[](userTenderCount);\r\n        tenderIssuers = new address[](userTenderCount);\r\n       \r\n        for (uint256 i = 0; i < userTenderCount; i++) {\r\n            uint256 tenderId = users[msg.sender].tenderIds[i];\r\n            Tender memory tender = users[msg.sender].tenders[tenderId];\r\n            tenderNames[i] = tender.tenderName;\r\n            tenderAmounts[i] = tender.tenderAmount;\r\n            tenderIssuers[i] = tender.tenderIssuer;\r\n        }\r\n    }\r\n\r\n    // Getter functions for tender details\r\n    function getTenderNames() public view returns (string[] memory) {\r\n        return tenderNames;\r\n    }\r\n\r\n    function getTenderAmounts() public view returns (string[] memory) {\r\n        return tenderAmounts;\r\n    }\r\n\r\n    function getTenderIssuers() public view returns (address[] memory) {\r\n        return tenderIssuers;\r\n    }\r\n    function getAllUsersTenderDetails() public view returns (string[][] memory, string[][] memory, address[][] memory) {\r\n    uint256 totalUserTenders = 0;\r\n    for (uint256 i = 0; i < Usercount; i++) {\r\n        totalUserTenders += getUserTenderCount(address(uint160(uint(keccak256(abi.encodePacked(address(this), i))))));\r\n    }\r\n\r\n    string[][] memory allTenderNames = new string[][](totalUserTenders);\r\n    string[][] memory allTenderAmounts = new string[][](totalUserTenders);\r\n    address[][] memory allTenderIssuers = new address[][](totalUserTenders);\r\n\r\n    uint256 currentIndex = 0;\r\n    for (uint256 j = 0; j < Usercount; j++) {\r\n        address userAddress = address(uint160(uint(keccak256(abi.encodePacked(address(this), j)))));\r\n        uint256 userTenderCount = getUserTenderCount(userAddress);\r\n        for (uint256 k = 0; k < userTenderCount; k++) {\r\n            (string memory tenderName, string memory tenderAmount, address tenderIssuer) = getTenderDetails(userAddress, users[userAddress].tenderIds[k]);\r\n            allTenderNames[currentIndex] = new string[](1);\r\n            allTenderNames[currentIndex][0] = tenderName;\r\n            allTenderAmounts[currentIndex] = new string[](1);\r\n            allTenderAmounts[currentIndex][0] = tenderAmount;\r\n            allTenderIssuers[currentIndex] = new address[](1);\r\n            allTenderIssuers[currentIndex][0] = tenderIssuer;\r\n            currentIndex++;\r\n        }\r\n    }\r\n\r\n    return (allTenderNames, allTenderAmounts, allTenderIssuers);\r\n}\r\n\r\n}\r\n",
  "sourcePath": "D:\\Tender\\contracts\\TenderAllocator.sol",
  "compiler": {
    "name": "solc",
    "version": "0.5.16+commit.9c3226ce.Emscripten.clang"
  },
  "schemaVersion": "3.4.16",
  "updatedAt": "2024-02-24T03:37:59.017Z",
  "networkType": "ethereum",
  "devdoc": {
    "methods": {}
  },
  "userdoc": {
    "methods": {}
  }
}